{
  "_format": "hh-sol-artifact-1",
  "contractName": "Calculator",
  "sourceName": "contracts/Calculator.sol",
  "abi": [
    {
      "inputs": [],
      "name": "storedCharacteristic",
      "outputs": [
        {
          "internalType": "int64",
          "name": "",
          "type": "int64"
        }
      ],
      "stateMutability": "view",
      "type": "function"
    },
    {
      "inputs": [],
      "name": "storedLogX64",
      "outputs": [
        {
          "internalType": "int128",
          "name": "",
          "type": "int128"
        }
      ],
      "stateMutability": "view",
      "type": "function"
    },
    {
      "inputs": [],
      "name": "storedMantissa",
      "outputs": [
        {
          "internalType": "uint16",
          "name": "",
          "type": "uint16"
        }
      ],
      "stateMutability": "view",
      "type": "function"
    },
    {
      "inputs": [
        {
          "internalType": "int64",
          "name": "characteristic",
          "type": "int64"
        },
        {
          "internalType": "uint16",
          "name": "mantissa",
          "type": "uint16"
        },
        {
          "internalType": "uint128",
          "name": "logX64",
          "type": "uint128"
        },
        {
          "internalType": "bytes32[]",
          "name": "proof",
          "type": "bytes32[]"
        }
      ],
      "name": "updateLog",
      "outputs": [],
      "stateMutability": "nonpayable",
      "type": "function"
    }
  ],
  "bytecode": "0x608060405260008060006101000a81548167ffffffffffffffff021916908360070b67ffffffffffffffff1602179055506064600060086101000a81548161ffff021916908361ffff160217905550600080600a6101000a8154816fffffffffffffffffffffffffffffffff0219169083600f0b6fffffffffffffffffffffffffffffffff16021790555034801561009657600080fd5b5061073e806100a66000396000f3fe608060405234801561001057600080fd5b506004361061004c5760003560e01c8063122331c9146100515780631add27e71461006f578063b7aca3d11461008b578063cedbb061146100a9575b600080fd5b6100596100c7565b6040516100669190610228565b60405180910390f35b610089600480360381019061008491906104a1565b6100da565b005b6100936101e7565b6040516100a09190610533565b60405180910390f35b6100b16101fb565b6040516100be919061055d565b60405180910390f35b6000600a9054906101000a9004600f0b81565b600073__$f756082ef3c8ae3b405329bb76ace3e540$__635afe756e868686866040518563ffffffff1660e01b81526004016101199493929190610663565b602060405180830381865af4158015610136573d6000803e3d6000fd5b505050506040513d601f19601f8201168201806040525081019061015a91906106db565b9050846000806101000a81548167ffffffffffffffff021916908360070b67ffffffffffffffff16021790555083600060086101000a81548161ffff021916908361ffff160217905550806000600a6101000a8154816fffffffffffffffffffffffffffffffff0219169083600f0b6fffffffffffffffffffffffffffffffff1602179055505050505050565b600060089054906101000a900461ffff1681565b60008054906101000a900460070b81565b600081600f0b9050919050565b6102228161020c565b82525050565b600060208201905061023d6000830184610219565b92915050565b6000604051905090565b600080fd5b600080fd5b60008160070b9050919050565b61026d81610257565b811461027857600080fd5b50565b60008135905061028a81610264565b92915050565b600061ffff82169050919050565b6102a781610290565b81146102b257600080fd5b50565b6000813590506102c48161029e565b92915050565b60006fffffffffffffffffffffffffffffffff82169050919050565b6102ef816102ca565b81146102fa57600080fd5b50565b60008135905061030c816102e6565b92915050565b600080fd5b6000601f19601f8301169050919050565b7f4e487b7100000000000000000000000000000000000000000000000000000000600052604160045260246000fd5b61036082610317565b810181811067ffffffffffffffff8211171561037f5761037e610328565b5b80604052505050565b6000610392610243565b905061039e8282610357565b919050565b600067ffffffffffffffff8211156103be576103bd610328565b5b602082029050602081019050919050565b600080fd5b6000819050919050565b6103e7816103d4565b81146103f257600080fd5b50565b600081359050610404816103de565b92915050565b600061041d610418846103a3565b610388565b905080838252602082019050602084028301858111156104405761043f6103cf565b5b835b81811015610469578061045588826103f5565b845260208401935050602081019050610442565b5050509392505050565b600082601f83011261048857610487610312565b5b813561049884826020860161040a565b91505092915050565b600080600080608085870312156104bb576104ba61024d565b5b60006104c98782880161027b565b94505060206104da878288016102b5565b93505060406104eb878288016102fd565b925050606085013567ffffffffffffffff81111561050c5761050b610252565b5b61051887828801610473565b91505092959194509250565b61052d81610290565b82525050565b60006020820190506105486000830184610524565b92915050565b61055781610257565b82525050565b6000602082019050610572600083018461054e565b92915050565b61058181610257565b82525050565b61059081610290565b82525050565b61059f816102ca565b82525050565b600081519050919050565b600082825260208201905092915050565b6000819050602082019050919050565b6105da816103d4565b82525050565b60006105ec83836105d1565b60208301905092915050565b6000602082019050919050565b6000610610826105a5565b61061a81856105b0565b9350610625836105c1565b8060005b8381101561065657815161063d88826105e0565b9750610648836105f8565b925050600181019050610629565b5085935050505092915050565b60006080820190506106786000830187610578565b6106856020830186610587565b6106926040830185610596565b81810360608301526106a48184610605565b905095945050505050565b6106b88161020c565b81146106c357600080fd5b50565b6000815190506106d5816106af565b92915050565b6000602082840312156106f1576106f061024d565b5b60006106ff848285016106c6565b9150509291505056fea2646970667358221220c29b0584ab9380ae3b35689d659482f7df6a18e489fdffccf31510f6cda794da64736f6c63430008110033",
  "linkReferences": {
    "contracts/MerkleMath.sol": {
      "MerkleMath": [
        {
          "length": 20,
          "start": 388
        }
      ]
    }
  },
  "deployedLinkReferences": {
    "contracts/MerkleMath.sol": {
      "MerkleMath": [
        {
          "length": 20,
          "start": 222
        }
      ]
    }
  }
}