{
  "_format": "hh-sol-artifact-1",
  "contractName": "Abdk",
  "sourceName": "contracts/Abdk.sol",
  "abi": [
    {
      "inputs": [
        {
          "internalType": "int128",
          "name": "x",
          "type": "int128"
        }
      ],
      "name": "log10",
      "outputs": [
        {
          "internalType": "int128",
          "name": "",
          "type": "int128"
        }
      ],
      "stateMutability": "pure",
      "type": "function"
    },
    {
      "inputs": [
        {
          "internalType": "int128",
          "name": "x",
          "type": "int128"
        }
      ],
      "name": "log10GasCost",
      "outputs": [
        {
          "internalType": "uint256",
          "name": "",
          "type": "uint256"
        }
      ],
      "stateMutability": "view",
      "type": "function"
    },
    {
      "inputs": [
        {
          "internalType": "int128",
          "name": "x",
          "type": "int128"
        },
        {
          "internalType": "uint256",
          "name": "y",
          "type": "uint256"
        }
      ],
      "name": "powGasCost",
      "outputs": [
        {
          "internalType": "uint256",
          "name": "",
          "type": "uint256"
        }
      ],
      "stateMutability": "view",
      "type": "function"
    }
  ],
  "bytecode": "0x61076b610053600b82828239805160001a607314610046577f4e487b7100000000000000000000000000000000000000000000000000000000600052600060045260246000fd5b30600052607381538281f3fe730000000000000000000000000000000000000000301460806040526004361061004b5760003560e01c806309c07b6914610050578063391c5ddb1461008057806365c95e73146100b0575b600080fd5b61006a600480360381019061006591906105db565b6100e0565b6040516100779190610617565b60405180910390f35b61009a60048036038101906100959190610668565b61011a565b6040516100a791906106b7565b60405180910390f35b6100ca60048036038101906100c591906105db565b610140565b6040516100d791906106b7565b60405180910390f35b60008082600f0b136100f157600080fd5b60806f4d104d427de7fbcc47c4acd605be48bc61010d84610164565b600f0b02901c9050919050565b6000805a905061012a8484610288565b505a816101379190610701565b91505092915050565b6000805a905061014f836100e0565b505a8161015c9190610701565b915050919050565b60008082600f0b1361017557600080fd5b60008083600f0b905068010000000000000000811261019c57604081901d90506040820191505b64010000000081126101b657602081901d90506020820191505b6201000081126101ce57601081901d90506010820191505b61010081126101e557600881901d90506008820191505b601081126101fb57600481901d90506004820191505b6004811261021157600281901d90506002820191505b60028112610220576001820191505b60006040808403901b9050600083607f0386600f0b901b9050600067800000000000000090505b600081131561027b578182029150600060ff83901c905080607f0183901c92508082028401935050600181901d9050610247565b5081945050505050919050565b600080600084600f0b1280156102a057506001808416145b905060008085600f0b126102b457846102b9565b846000035b6fffffffffffffffffffffffffffffffff1690506000700100000000000000000000000000000000905068010000000000000000821161039357603f82901b91505b60008514610387576000600186161461031857607f828202901c90505b607f828302901c91506000600286161461033657607f828202901c90505b607f828302901c91506000600486161461035457607f828202901c90505b607f828302901c91506000600886161461037257607f828202901c90505b607f828302901c9150600485901c94506102fb565b604081901c905061052d565b6000603f90506c010000000000000000000000008310156103bc57602083901b92506020810390505b6e0100000000000000000000000000008310156103e157601083901b92506010810390505b6f0100000000000000000000000000000083101561040757600883901b92506008810390505b6f1000000000000000000000000000000083101561042d57600483901b92506004810390505b6f4000000000000000000000000000000083101561045357600283901b92506002810390505b6f8000000000000000000000000000000083101561047957600183901b92506001810390505b60005b60008714610514576040821061049157600080fd5b600060018816146104d257607f848402901c925081810190507001000000000000000000000000000000008311156104d157600183901c92506001810190505b5b607f848502901c9350600182901b9150700100000000000000000000000000000000841061050857600184901c93506001820191505b600187901c965061047c565b6040811061052157600080fd5b8060400383901c925050505b60008361053a578161053f565b816000035b90507fffffffffffffffffffffffffffffffff80000000000000000000000000000000600f0b811215801561058757506f7fffffffffffffffffffffffffffffff600f0b8113155b61059057600080fd5b8094505050505092915050565b600080fd5b600081600f0b9050919050565b6105b8816105a2565b81146105c357600080fd5b50565b6000813590506105d5816105af565b92915050565b6000602082840312156105f1576105f061059d565b5b60006105ff848285016105c6565b91505092915050565b610611816105a2565b82525050565b600060208201905061062c6000830184610608565b92915050565b6000819050919050565b61064581610632565b811461065057600080fd5b50565b6000813590506106628161063c565b92915050565b6000806040838503121561067f5761067e61059d565b5b600061068d858286016105c6565b925050602061069e85828601610653565b9150509250929050565b6106b181610632565b82525050565b60006020820190506106cc60008301846106a8565b92915050565b7f4e487b7100000000000000000000000000000000000000000000000000000000600052601160045260246000fd5b600061070c82610632565b915061071783610632565b925082820390508181111561072f5761072e6106d2565b5b9291505056fea2646970667358221220bb9d2641844506fce7c7740cada7b8aacc49c27f5662feda228ffd17b1b9969f64736f6c63430008110033",
  "linkReferences": {},
  "deployedLinkReferences": {}
}