{
  "_format": "hh-sol-artifact-1",
  "contractName": "MerkleMath",
  "sourceName": "contracts/MerkleMath.sol",
  "abi": [
    {
      "inputs": [
        {
          "internalType": "int64",
          "name": "characteristicBase2",
          "type": "int64"
        },
        {
          "internalType": "uint16",
          "name": "mantissaMul1000",
          "type": "uint16"
        },
        {
          "internalType": "uint128",
          "name": "antilog2X64",
          "type": "uint128"
        },
        {
          "internalType": "bytes32[]",
          "name": "proof",
          "type": "bytes32[]"
        }
      ],
      "name": "antilog",
      "outputs": [
        {
          "internalType": "uint128",
          "name": "",
          "type": "uint128"
        }
      ],
      "stateMutability": "pure",
      "type": "function"
    },
    {
      "inputs": [
        {
          "internalType": "int64",
          "name": "characteristicBase2",
          "type": "int64"
        },
        {
          "internalType": "uint16",
          "name": "mantissaMul1000",
          "type": "uint16"
        },
        {
          "internalType": "uint128",
          "name": "antilog2X64",
          "type": "uint128"
        },
        {
          "internalType": "bytes32[]",
          "name": "proof",
          "type": "bytes32[]"
        }
      ],
      "name": "antilogGasCost",
      "outputs": [
        {
          "internalType": "uint256",
          "name": "",
          "type": "uint256"
        }
      ],
      "stateMutability": "view",
      "type": "function"
    },
    {
      "inputs": [
        {
          "internalType": "int64",
          "name": "characteristic",
          "type": "int64"
        },
        {
          "internalType": "uint16",
          "name": "mantissa",
          "type": "uint16"
        },
        {
          "internalType": "uint128",
          "name": "logX64",
          "type": "uint128"
        },
        {
          "internalType": "bytes32[]",
          "name": "proof",
          "type": "bytes32[]"
        }
      ],
      "name": "log10",
      "outputs": [
        {
          "internalType": "int128",
          "name": "",
          "type": "int128"
        }
      ],
      "stateMutability": "pure",
      "type": "function"
    },
    {
      "inputs": [
        {
          "internalType": "int64",
          "name": "characteristic",
          "type": "int64"
        },
        {
          "internalType": "uint16",
          "name": "mantissa",
          "type": "uint16"
        },
        {
          "internalType": "uint128",
          "name": "logX64",
          "type": "uint128"
        },
        {
          "internalType": "bytes32[]",
          "name": "proof",
          "type": "bytes32[]"
        }
      ],
      "name": "log10GasCost",
      "outputs": [
        {
          "internalType": "uint256",
          "name": "",
          "type": "uint256"
        }
      ],
      "stateMutability": "view",
      "type": "function"
    }
  ],
  "bytecode": "0x610a76610053600b82828239805160001a607314610046577f4e487b7100000000000000000000000000000000000000000000000000000000600052600060045260246000fd5b30600052607381538281f3fe73000000000000000000000000000000000000000030146080604052600436106100565760003560e01c80632ccc1a8f1461005b5780632fc53ea71461008b5780635afe756e146100bb578063782cbff5146100eb575b600080fd5b6100756004803603810190610070919061069e565b61011b565b6040516100829190610730565b60405180910390f35b6100a560048036038101906100a0919061069e565b61025b565b6040516100b29190610764565b60405180910390f35b6100d560048036038101906100d0919061069e565b610285565b6040516100e2919061079b565b60405180910390f35b6101056004803603810190610100919061069e565b610367565b6040516101129190610764565b60405180910390f35b60008084846040516020016101319291906107d4565b60405160208183030381529060405280519060200120604051602001610157919061081e565b60405160208183030381529060405280519060200120905061019d837fcdacbcbb13051729a67115988093660fb183734cb06f7f9db7bb1a3138bfa91860001b83610391565b6101dc576040517f08c379a00000000000000000000000000000000000000000000000000000000081526004016101d390610896565b60405180910390fd5b60008660070b121561022457856101f2906108e5565b60070b6fffffffffffffffffffffffffffffffff16846fffffffffffffffffffffffffffffffff16901c915050610253565b8560070b6fffffffffffffffffffffffffffffffff16846fffffffffffffffffffffffffffffffff16901b9150505b949350505050565b6000805a905061026d8686868661011b565b505a8161027a919061092d565b915050949350505050565b600080848460405160200161029b9291906107d4565b604051602081830303815290604052805190602001206040516020016102c1919061081e565b604051602081830303815290604052805190602001209050610307837f998add033af31411c96b8272b055b95b55d92f349c84111d5fac9e2cfcad758960001b83610391565b610346576040517f08c379a000000000000000000000000000000000000000000000000000000000815260040161033d90610896565b60405180910390fd5b8360408760070b600f0b901b61035c9190610961565b915050949350505050565b6000805a905061037986868686610285565b505a81610386919061092d565b915050949350505050565b60008261039e85846103a8565b1490509392505050565b60008082905060005b84518110156103f3576103de828683815181106103d1576103d06109c9565b5b60200260200101516103fe565b915080806103eb906109f8565b9150506103b1565b508091505092915050565b6000818310610416576104118284610429565b610421565b6104208383610429565b5b905092915050565b600082600052816020526040600020905092915050565b6000604051905090565b600080fd5b600080fd5b60008160070b9050919050565b61046a81610454565b811461047557600080fd5b50565b60008135905061048781610461565b92915050565b600061ffff82169050919050565b6104a48161048d565b81146104af57600080fd5b50565b6000813590506104c18161049b565b92915050565b60006fffffffffffffffffffffffffffffffff82169050919050565b6104ec816104c7565b81146104f757600080fd5b50565b600081359050610509816104e3565b92915050565b600080fd5b6000601f19601f8301169050919050565b7f4e487b7100000000000000000000000000000000000000000000000000000000600052604160045260246000fd5b61055d82610514565b810181811067ffffffffffffffff8211171561057c5761057b610525565b5b80604052505050565b600061058f610440565b905061059b8282610554565b919050565b600067ffffffffffffffff8211156105bb576105ba610525565b5b602082029050602081019050919050565b600080fd5b6000819050919050565b6105e4816105d1565b81146105ef57600080fd5b50565b600081359050610601816105db565b92915050565b600061061a610615846105a0565b610585565b9050808382526020820190506020840283018581111561063d5761063c6105cc565b5b835b81811015610666578061065288826105f2565b84526020840193505060208101905061063f565b5050509392505050565b600082601f8301126106855761068461050f565b5b8135610695848260208601610607565b91505092915050565b600080600080608085870312156106b8576106b761044a565b5b60006106c687828801610478565b94505060206106d7878288016104b2565b93505060406106e8878288016104fa565b925050606085013567ffffffffffffffff8111156107095761070861044f565b5b61071587828801610670565b91505092959194509250565b61072a816104c7565b82525050565b60006020820190506107456000830184610721565b92915050565b6000819050919050565b61075e8161074b565b82525050565b60006020820190506107796000830184610755565b92915050565b600081600f0b9050919050565b6107958161077f565b82525050565b60006020820190506107b0600083018461078c565b92915050565b6107bf8161048d565b82525050565b6107ce816104c7565b82525050565b60006040820190506107e960008301856107b6565b6107f660208301846107c5565b9392505050565b6000819050919050565b610818610813826105d1565b6107fd565b82525050565b600061082a8284610807565b60208201915081905092915050565b600082825260208201905092915050565b7f496e76616c69642070726f6f6600000000000000000000000000000000000000600082015250565b6000610880600d83610839565b915061088b8261084a565b602082019050919050565b600060208201905081810360008301526108af81610873565b9050919050565b7f4e487b7100000000000000000000000000000000000000000000000000000000600052601160045260246000fd5b60006108f082610454565b91507fffffffffffffffffffffffffffffffffffffffffffffffff80000000000000008203610922576109216108b6565b5b816000039050919050565b60006109388261074b565b91506109438361074b565b925082820390508181111561095b5761095a6108b6565b5b92915050565b600061096c8261077f565b91506109778361077f565b925082820190507fffffffffffffffffffffffffffffffff8000000000000000000000000000000081126f7fffffffffffffffffffffffffffffff821317156109c3576109c26108b6565b5b92915050565b7f4e487b7100000000000000000000000000000000000000000000000000000000600052603260045260246000fd5b6000610a038261074b565b91507fffffffffffffffffffffffffffffffffffffffffffffffffffffffffffffffff8203610a3557610a346108b6565b5b60018201905091905056fea2646970667358221220f4c43c16f736158b18fff3aa25b632198048137cf02b14fb4ac422c88f83dae964736f6c63430008110033",
  "linkReferences": {},
  "deployedLinkReferences": {}
}