{
  "_format": "hh-sol-artifact-1",
  "contractName": "MerkleLog",
  "sourceName": "contracts/MerkleLog.sol",
  "abi": [
    {
      "inputs": [
        {
          "internalType": "int64",
          "name": "characteristic",
          "type": "int64"
        },
        {
          "internalType": "uint16",
          "name": "mantissa",
          "type": "uint16"
        },
        {
          "internalType": "uint128",
          "name": "logX64",
          "type": "uint128"
        },
        {
          "internalType": "bytes32[]",
          "name": "proof",
          "type": "bytes32[]"
        }
      ],
      "name": "log10",
      "outputs": [
        {
          "internalType": "int128",
          "name": "",
          "type": "int128"
        }
      ],
      "stateMutability": "pure",
      "type": "function"
    },
    {
      "inputs": [
        {
          "internalType": "int64",
          "name": "characteristic",
          "type": "int64"
        },
        {
          "internalType": "uint16",
          "name": "mantissa",
          "type": "uint16"
        },
        {
          "internalType": "uint128",
          "name": "logX64",
          "type": "uint128"
        },
        {
          "internalType": "bytes32[]",
          "name": "proof",
          "type": "bytes32[]"
        }
      ],
      "name": "log10GasCost",
      "outputs": [
        {
          "internalType": "uint256",
          "name": "",
          "type": "uint256"
        }
      ],
      "stateMutability": "view",
      "type": "function"
    }
  ],
  "bytecode": "0x610824610053600b82828239805160001a607314610046577f4e487b7100000000000000000000000000000000000000000000000000000000600052600060045260246000fd5b30600052607381538281f3fe73000000000000000000000000000000000000000030146080604052600436106100405760003560e01c80635afe756e14610045578063782cbff514610075575b600080fd5b61005f600480360381019061005a91906104be565b6100a5565b60405161006c919061055d565b60405180910390f35b61008f600480360381019061008a91906104be565b610187565b60405161009c9190610591565b60405180910390f35b60008084846040516020016100bb9291906105ca565b604051602081830303815290604052805190602001206040516020016100e19190610614565b604051602081830303815290604052805190602001209050610127837f998add033af31411c96b8272b055b95b55d92f349c84111d5fac9e2cfcad758960001b836101b1565b610166576040517f08c379a000000000000000000000000000000000000000000000000000000000815260040161015d9061068c565b60405180910390fd5b8360408760070b600f0b901b61017c91906106db565b915050949350505050565b6000805a9050610199868686866100a5565b505a816101a69190610743565b915050949350505050565b6000826101be85846101c8565b1490509392505050565b60008082905060005b8451811015610213576101fe828683815181106101f1576101f0610777565b5b602002602001015161021e565b9150808061020b906107a6565b9150506101d1565b508091505092915050565b6000818310610236576102318284610249565b610241565b6102408383610249565b5b905092915050565b600082600052816020526040600020905092915050565b6000604051905090565b600080fd5b600080fd5b60008160070b9050919050565b61028a81610274565b811461029557600080fd5b50565b6000813590506102a781610281565b92915050565b600061ffff82169050919050565b6102c4816102ad565b81146102cf57600080fd5b50565b6000813590506102e1816102bb565b92915050565b60006fffffffffffffffffffffffffffffffff82169050919050565b61030c816102e7565b811461031757600080fd5b50565b60008135905061032981610303565b92915050565b600080fd5b6000601f19601f8301169050919050565b7f4e487b7100000000000000000000000000000000000000000000000000000000600052604160045260246000fd5b61037d82610334565b810181811067ffffffffffffffff8211171561039c5761039b610345565b5b80604052505050565b60006103af610260565b90506103bb8282610374565b919050565b600067ffffffffffffffff8211156103db576103da610345565b5b602082029050602081019050919050565b600080fd5b6000819050919050565b610404816103f1565b811461040f57600080fd5b50565b600081359050610421816103fb565b92915050565b600061043a610435846103c0565b6103a5565b9050808382526020820190506020840283018581111561045d5761045c6103ec565b5b835b8181101561048657806104728882610412565b84526020840193505060208101905061045f565b5050509392505050565b600082601f8301126104a5576104a461032f565b5b81356104b5848260208601610427565b91505092915050565b600080600080608085870312156104d8576104d761026a565b5b60006104e687828801610298565b94505060206104f7878288016102d2565b93505060406105088782880161031a565b925050606085013567ffffffffffffffff8111156105295761052861026f565b5b61053587828801610490565b91505092959194509250565b600081600f0b9050919050565b61055781610541565b82525050565b6000602082019050610572600083018461054e565b92915050565b6000819050919050565b61058b81610578565b82525050565b60006020820190506105a66000830184610582565b92915050565b6105b5816102ad565b82525050565b6105c4816102e7565b82525050565b60006040820190506105df60008301856105ac565b6105ec60208301846105bb565b9392505050565b6000819050919050565b61060e610609826103f1565b6105f3565b82525050565b600061062082846105fd565b60208201915081905092915050565b600082825260208201905092915050565b7f496e76616c69642070726f6f6600000000000000000000000000000000000000600082015250565b6000610676600d8361062f565b915061068182610640565b602082019050919050565b600060208201905081810360008301526106a581610669565b9050919050565b7f4e487b7100000000000000000000000000000000000000000000000000000000600052601160045260246000fd5b60006106e682610541565b91506106f183610541565b925082820190507fffffffffffffffffffffffffffffffff8000000000000000000000000000000081126f7fffffffffffffffffffffffffffffff8213171561073d5761073c6106ac565b5b92915050565b600061074e82610578565b915061075983610578565b9250828203905081811115610771576107706106ac565b5b92915050565b7f4e487b7100000000000000000000000000000000000000000000000000000000600052603260045260246000fd5b60006107b182610578565b91507fffffffffffffffffffffffffffffffffffffffffffffffffffffffffffffffff82036107e3576107e26106ac565b5b60018201905091905056fea2646970667358221220dff01d502ee9c374450f564788be853546f951232f968db4bc4aea20bc19ae4264736f6c63430008110033",
  "linkReferences": {},
  "deployedLinkReferences": {}
}