{
  "_format": "hh-sol-artifact-1",
  "contractName": "AbdkLog",
  "sourceName": "contracts/AbdkLog.sol",
  "abi": [
    {
      "inputs": [
        {
          "internalType": "int128",
          "name": "x",
          "type": "int128"
        }
      ],
      "name": "log10",
      "outputs": [
        {
          "internalType": "int128",
          "name": "",
          "type": "int128"
        }
      ],
      "stateMutability": "pure",
      "type": "function"
    },
    {
      "inputs": [
        {
          "internalType": "int128",
          "name": "x",
          "type": "int128"
        }
      ],
      "name": "log10GasCost",
      "outputs": [
        {
          "internalType": "uint256",
          "name": "",
          "type": "uint256"
        }
      ],
      "stateMutability": "view",
      "type": "function"
    }
  ],
  "bytecode": "0x608060405234801561001057600080fd5b5061037f806100206000396000f3fe608060405234801561001057600080fd5b50600436106100365760003560e01c806309c07b691461003b57806365c95e731461006b575b600080fd5b6100556004803603810190610050919061025b565b61009b565b6040516100629190610297565b60405180910390f35b6100856004803603810190610080919061025b565b6100d5565b60405161009291906102cb565b60405180910390f35b60008082600f0b136100ac57600080fd5b60806f4d104d427de7fbcc47c4acd605be48bc6100c8846100f9565b600f0b02901c9050919050565b6000805a90506100e48361009b565b505a816100f19190610315565b915050919050565b60008082600f0b1361010a57600080fd5b60008083600f0b905068010000000000000000811261013157604081901d90506040820191505b640100000000811261014b57602081901d90506020820191505b62010000811261016357601081901d90506010820191505b610100811261017a57600881901d90506008820191505b6010811261019057600481901d90506004820191505b600481126101a657600281901d90506002820191505b600281126101b5576001820191505b60006040808403901b9050600083607f0386600f0b901b9050600067800000000000000090505b6000811315610210578182029150600060ff83901c905080607f0183901c92508082028401935050600181901d90506101dc565b5081945050505050919050565b600080fd5b600081600f0b9050919050565b61023881610222565b811461024357600080fd5b50565b6000813590506102558161022f565b92915050565b6000602082840312156102715761027061021d565b5b600061027f84828501610246565b91505092915050565b61029181610222565b82525050565b60006020820190506102ac6000830184610288565b92915050565b6000819050919050565b6102c5816102b2565b82525050565b60006020820190506102e060008301846102bc565b92915050565b7f4e487b7100000000000000000000000000000000000000000000000000000000600052601160045260246000fd5b6000610320826102b2565b915061032b836102b2565b9250828203905081811115610343576103426102e6565b5b9291505056fea2646970667358221220750fd7e4da91c0bdfbd3ea0c00214a4fa756820afed9eb4683548a747761f41a64736f6c63430008110033",
  "linkReferences": {},
  "deployedLinkReferences": {}
}